:100000000C9434000C943E000C943E000C943E0082
:100010000C943E000C943E000C943E000C943E0068
:100020000C943E000C943E000C943E000C943E0058
:100030000C943E000C943E000C943E000C943E0048
:100040000C943E000C943E000C943E000C943E0038
:100050000C943E000C943E000C943E000C943E0028
:100060000C943E000C943E0011241FBECFEFD8E04C
:10007000DEBFCDBF0E946E000C948E000C94000079
:10008000389A399A3A9A3B9AFB0120E030E02817D7
:1000900039072CF4119211922F5F3F4FF8CF08953A
:1000A000FB0180819181892B11F4409801C0409A15
:1000B00082819381892B11F4419801C0419A8481F6
:1000C0009581892B11F4429801C0429A86819781CB
:1000D000892B11F443980895439A0895CF93DF93A1
:1000E000CDB7DEB728970FB6F894DEBF0FBECDBFF1
:1000F000389ABE016F5F7F4F84E090E00E9440001D
:10010000BE016F5F7F4F84E090E00E9450008FEF50
:100110009FE50197F1F700C00000F2CFF894FFCF00
:00000001FF
