:100000000C9434000C943E000C943E000C943E0082
:100010000C943E000C943E000C943E000C943E0068
:100020000C943E000C943E000C943E000C943E0058
:100030000C943E000C943E000C943E000C943E0048
:100040000C943E000C943E000C943E000C943E0038
:100050000C943E000C943E000C943E000C943E0028
:100060000C943E000C943E0011241FBECFEFD8E04C
:10007000DEBFCDBF0E94EF000C9424010C94000061
:10008000389A399A3A9A3B9A229A219AFB0120E0AF
:1000900030E0281739072CF4119211922F5F3F4F4F
:1000A000F8CF0895FB0184819581892B11F4409844
:1000B00001C0409A86819781892B11F4419801C033
:1000C000419A80859185892B11F4429801C0429A0A
:1000D00082859385892B11F4439801C0439A8281CC
:1000E0009381892B11F42A9801C02A9A80819181E9
:1000F000892B11F429980895299A08959093C500A1
:100100008093C400E1ECF0E080818860808380818E
:100110008061808386E08093C20008959091C00042
:1001200095FFFCCF8093C6000895CF93C82F5E9BA8
:1001300004C05F9B02C081E30BC08BB15F9B02C018
:1001400082E306C05E9B03C08BB183E301C084E3FE
:100150000E948E008C2FCF910C948E008091C00055
:1001600087FFFCCF8091C6000895AF92BF92CF92D7
:10017000DF92EF92FF920F931F93CF93DF931F9223
:10018000CDB7DEB77C015B0100E010E0CC24C39466
:10019000D12C0E151F05ACF449830E94AE00498195
:1001A000803321F4F5011182108205C0813319F4E6
:1001B000F501D182C0820F5F1F4FF2E0AF0EB11C7C
:1001C000E8CF842F0F90DF91CF911F910F91FF9077
:1001D000EF90DF90CF90BF90AF900C948E00CF93B4
:1001E000DF93CDB7DEB72C970FB6F894DEBF0FBE06
:1001F000CDBF8FE290E00E947E00BE016F5F7F4F17
:1002000086E090E00E944000BE016F5F7F4F86E075
:1002100090E00E9452008FEF9FE50197F1F700C038
:1002200000000E94AE008A3749F441E6BE016F5FCC
:100230007F4F86E090E00E94B500E6CF823659F706
:0C02400081E60E949500E7CFF894FFCF04
:00000001FF
